:100000000C942A000C9447000C9447000C94470071
:100010000C94B0230C9487230C945E230C94E32C53
:100020000C9435230C940C230C94E3220C94BA22E8
:100030000C9447000C94A7200C9447000C94E420E7
:100040000C9447000C9447000C9447000C94470014
:100050000C94470011241FBECFE5D8E0DEBFCDBF12
:1000600011E0A0E6B0E0E2E4FEE602C005900D92E9
:10007000AA3EB107D9F717E0AAEEB1E001C01D9280
:10008000AF36B107E1F70E94E6350C941F370C94A8
:100090000000EF92FF920F93DF93CF93CDB7DEB7BF
:1000A00060970FB6F894DEBF0FBECDBFA82F002318
:1000B00009F461C07E010894E11CF11C88E0F7019D
:1000C00011928A95E9F729833A834B835C836D8388
:1000D0007E83AF83988780E2801BE82FFF27E7FDB0
:1000E000F09549815A816B817C81181684F01986BC
:1000F0001A861B861C86882799278E1B9F0B04C097
:10010000440F551F661F771F8A95D2F728C0202FEE
:10011000332727FD3095DB01CA01022E04C0880F6A
:10012000991FAA1FBB1F0A94D2F789879A87AB87AA
:10013000BC8704C07695679557954795EA95D2F7A1
:100140008D819E81AF81B88504C0880F991FAA1F39
:10015000BB1F2A95D2F7482B592B6A2B7B2B4D8737
:100160005E876F87788B29853A854B855C856D85A1
:100170007E85AF8598898A2F60960FB6F894DEBF8A
:100180000FBECDBFCF91DF910F91FF90EF900895FB
:10019000A2E7B0E0EEECF0E00C94C936982E892E80
:1001A000712E88E0FE013196DF01682E1D926A945F
:1001B000E9F729833A834B835C836D837E839F8237
:1001C0009887FE013996DF011D928A95E9F7A98685
:1001D000BA86CB86DC86ED86FE860F87188B8D81EE
:1001E0009E81AF81B885B7FD07C0E1961CAE1DAEFC
:1001F0001EAE1FAEE19764C0219581E0121608F093
:1002000080E0319591E0131608F090E0B32FB81B11
:1002100081E03B1708F080E0982B419531E01416FF
:1002200008F030E0A42FA91B81E04A1708F080E015
:10023000382B519591E0151608F090E0F52FF31B3F
:1002400081E05F1708F080E0982B619531E0161689
:1002500008F030E0E62FE91B81E06E1708F080E03F
:10026000382B719541E0171608F040E0572F531BCB
:1002700081E0751708F080E0482B892D819591E089
:10028000181608F090E0682E641A462D31E08615A5
:1002900008F030E0932B882D8195891B2983BA8340
:1002A000AB83FC83ED835E834F8388872FEF3FEF23
:1002B0004FEF5FEFE1962CAF3DAF4EAF5FAFE197F1
:1002C0008D859E85AF85B889B7FF6AC0E1964CAD34
:1002D0005DAD6EAD7FADE1974095509560957095A1
:1002E000E1964CAF5DAF6EAF7FAFE197A19481E037
:1002F0001A1408F080E0B19491E01B1408F090E02B
:100300006B2D681B81E0B61608F080E0982BC19435
:1003100021E01C1408F020E05C2D591B81E0C5167B
:1003200008F080E0282BD19491E01D1408F090E0B3
:100330004D2D421B81E0D41608F080E0982BE1940B
:1003400021E01E1408F020E03E2D391B81E0E31669
:1003500008F080E0282BF19491E01F1408F090E061
:100360007F2D721B272F81E0F71608F080E0982B75
:10037000019511E0101608F010E0802F891B982FCE
:1003800081E0091708F080E0182B872D8195811BEB
:10039000A9866A875B874C873D872E879F87888BD6
:1003A00099812A813B814C815D816E817F81A88505
:1003B000B9851A850B85FC84ED84DE84CF84B888EA
:1003C00088E0E1E18E2E912C8C0E9D1EF401682EAA
:1003D00011926A94E9F7998B2A8B3B8B4C8B5D8B3E
:1003E0006E8B7F8BA88F9E01275E3F4FF901119284
:1003F0008A95E9F7B98F1A8F0B8FFC8EED8EDE8E02
:10040000CF8EB8A2298C3A8C4B8C5C8CED8CFE8CF8
:100410000F8D18A169887A888B889C8821966CAE8C
:100420007DAE8EAE9FAE21976D887E888F88988C2A
:10043000E114F1040105110509F0D9C36214730434
:100440008404950408F057C100E0201600E030064F
:1004500001E0400600E0500688F41FEF2116310449
:100460004104510439F030F048E0E42EF12C012D24
:10047000112D18C0EE24FF24870114C020E022169D
:1004800020E0320620E0420621E0520630F038E15A
:10049000E32EF12C012D112D05C020E1E22EF12CCF
:1004A000012D112DD201C1010E2C04C0B695A795C6
:1004B000979587950A94D2F78F529F4FDC012C9124
:1004C00080E290E0A0E0B0E08E199F09A00BB10B94
:1004D0007C018D01E21AF10801091109E114F1040E
:1004E00001051105D1F10E2C04C0220C331C441C53
:1004F000551C0A94D2F7A40193010E2C04C0220FBC
:10050000331F441F551F0A94D2F780E290E08E19E2
:100510009F0921966CAC7DAC8EAC9FAC219704C03A
:1005200096948794779467948A95D2F7622A732A6F
:10053000842A952A2196ACACBDACCEACDFAC219719
:1005400004C0AA0CBB1CCC1CDD1CEA94D2F721967B
:10055000ACAEBDAECEAEDFAE21976201EE24FF247D
:100560002996CCAEDDAEEEAEFFAE299792018101A9
:10057000207030702D960CAF1DAF2EAF3FAF2D9772
:10058000C401B301A70196010E94A7367B018C012B
:10059000C401B30129962CAD3DAD4EAD5FAD299799
:1005A0000E94A736C901DA013C014D01C401B30123
:1005B0002D962CAD3DAD4EAD5FAD2D970E9488368A
:1005C0009B01AC018701FF24EE242196ACACBDACAD
:1005D000CEACDFAC2197C601AA27BB275701680123
:1005E000A82AB92ACA2ADB2AA216B306C406D50647
:1005F000E0F408946108710881089108A20CB31C0A
:10060000C41CD51CA214B304C404D50470F0A216F3
:10061000B306C406D50648F4089461087108810839
:100620009108A20CB31CC41CD51CA21AB30AC40A9C
:10063000D50AC601B50129962CAD3DAD4EAD5FADD5
:1006400029970E94A7367B018C01C601B501299626
:100650002CAD3DAD4EAD5FAD29970E94A736C901C7
:10066000DA015C016D01C601B5012D962CAD3DADE1
:100670004EAD5FAD2D970E9488369B01AC0187017E
:10068000FF24EE2421968CAD9DADAEADBFAD21977C
:10069000A070B070E82AF92A0A2B1B2BE216F30689
:1006A00004071507C0F40894A108B108C108D108CF
:1006B000E20CF31C041D151DE214F30404051505DA
:1006C00050F0E216F3060407150728F40894A10871
:1006D000B108C108D108D30199278827860175017F
:1006E000E82AF92A0A2B1B2B2596ECAEFDAE0EAF9D
:1006F0001FAF2597EBC4211431044104510471F458
:1007000061E070E080E090E020E030E040E050E028
:100710000E94A736C901DA011C012D0100E0201654
:1007200000E0300601E0400600E0500688F41FEFCC
:10073000211631044104510431F028F048E050E022
:1007400060E070E017C040E050E060E070E012C090
:1007500020E0221620E0320620E0420621E0520688
:1007600028F048E150E060E070E004C040E150E073
:1007700060E070E0D201C101042E04C0B695A795D7
:10078000979587950A94D2F78F529F4FDC012C9151
:10079000E0E2EE2EF12C012D112DD801C701841BB2
:1007A000950BA60BB70B821B9109A109B109009704
:1007B000A105B10561F464015301A218B308C4088E
:1007C000D50831E0632E712C812C912C24C1E39645
:1007D0008FAFE397082E04C0220C331C441C551C19
:1007E0000A94D2F7EE2DE81B640153010E2E04C0CB
:1007F000D694C794B794A7940A94D2F7A40193010E
:10080000E3960FACE39704C0220F331F441F551F1C
:100810000A94D2F721966CAC7DAC8EAC9FAC21973C
:100820000E2E04C096948794779467940A94D2F716
:1008300084017301E22AF32A042B152BE9AEFAAEE8
:100840000BAF1CAF320188249924920181012070E2
:10085000307061960CAF1DAF2EAF3FAF6197C601F0
:10086000B501A40193010E94A7367B018C01C6014A
:10087000B501A40193010E94A736C901DA0165966A
:100880008CAF9DAFAEAFBFAF6597BC01CD01619698
:100890002CAD3DAD4EAD5FAD61970E9488369B019A
:1008A000AC018701FF24EE24A9ACBAACCBACDCAC24
:1008B000C601AA27BB275C016D01AE28BF28C02A4C
:1008C000D12AA216B306C406D50660F565966CADAE
:1008D0007DAD8EAD9FAD659761507040804090407A
:1008E00065966CAF7DAF8EAF9FAF6597A20CB31CC2
:1008F000C41CD51CA214B304C404D50498F0A216D9
:10090000B306C406D50670F4615070408040904034
:1009100065966CAF7DAF8EAF9FAF6597A20CB31C91
:10092000C41CD51CA21AB30AC40AD50AC601B50153
:10093000A40193010E94A7367B018C01C601B50179
:10094000A40193010E94A736C901DA013C014D01BF
:10095000C401B30161962CAD3DAD4EAD5FAD619765
:100960000E9488369B01AC018701FF24EE2489ADEB
:100970009AADABADBCADA070B07057016801A82AAC
:10098000B92ACA2ADB2AA216B306C406D506E0F4A1
:1009900008946108710881089108A20CB31CC41C5A
:1009A000D51CA214B304C404D50470F0A216B30677
:1009B000C406D50648F408946108710881089108B6
:1009C000A20CB31CC41CD51C21968CAD9DADAEAD44
:1009D000BFAD2197E3960FACE39704C0880F991F32
:1009E000AA1FBB1F0A94D2F721968CAF9DAFAEAF62
:1009F000BFAF2197A21AB30AC40AD50A6596ECAC18
:100A0000FDAC0EAD1FAD6597D70199278827682AE1
:100A1000792A8A2A9B2A82012227332769960CAFDA
:100A20001DAF2EAF3FAF6997A2019101407050708A
:100A30006D962CAF3DAF4EAF5FAF6D97C601B50160
:100A400069962CAD3DAD4EAD5FAD69970E94A7365E
:100A50007B018C01C601B50169962CAD3DAD4EAD53
:100A60005FAD69970E94A736C901DA01A1968CAFE4
:100A70009DAFAEAFBFAFA197BC01CD016D962CADC0
:100A80003DAD4EAD5FAD6D970E9488369B01AC01C8
:100A90008701FF24EE242196ACACBDACCEACDFAC1C
:100AA0002197C601AA27BB2757016801A82AB92A9E
:100AB000CA2ADB2AA216B306C406D50660F5A1969B
:100AC0006CAD7DAD8EAD9FADA19761507040804003
:100AD0009040A1966CAF7DAF8EAF9FAFA197A20C57
:100AE000B31CC41CD51CA214B304C404D50498F0D0
:100AF000A216B306C406D50670F46150704080405B
:100B00009040A1966CAF7DAF8EAF9FAFA197A20C26
:100B1000B31CC41CD51CA21AB30AC40AD50AC60148
:100B2000B50169962CAD3DAD4EAD5FAD69970E94A4
:100B3000A7367B018C01C601B50169962CAD3DAD90
:100B40004EAD5FAD69970E94A736C901DA015C011D
:100B50006D01C601B5016D962CAD3DAD4EAD5FADDD
:100B60006D970E9488369B01AC018701FF24EE241B
:100B700021968CAD9DADAEADBFAD2197A070B0708C
:100B8000E82AF92A0A2B1B2BE216F306040715079D
:100B9000C0F40894A108B108C108D108E20CF31C04
:100BA000041D151DE214F3040405150550F0E216AA
:100BB000F3060407150728F40894A108B108C10832
:100BC000D108A196ECACFDAC0EAD1FADA197D7013D
:100BD0009927882796018501082B192B2A2B3B2B57
:100BE00025960CAF1DAF2EAF3FAF259772C26E1486
:100BF0007F048006910608F45FC220E0E21620E040
:100C0000F20621E0020720E0120788F43FEFE31626
:100C1000F1040105110531F028F048E050E060E0F2
:100C200070E017C040E050E060E070E012C040E0CB
:100C3000E41640E0F40640E0040741E0140728F021
:100C400048E150E060E070E004C040E150E060E066
:100C500070E0D801C701042E04C0B695A7959795FA
:100C600087950A94D2F78F529F4FDC012C9130E286
:100C7000A32EB12CC12CD12CD601C501841B950B00
:100C8000A60BB70B821B9109A109B1090097A10519
:100C9000B10599F4E614F7040805190508F4FEC136
:100CA00021966CAC7DAC8EAC9FAC21976214730422
:100CB0008404950408F0F2C1FFC1E2968FAFE29779
:100CC000082E04C0EE0CFF1C001F111F0A94D2F75F
:100CD0006A2D681BD201C101062E04C0B695A795E6
:100CE000979587950A94D2F75C016D01AE28BF28CD
:100CF000C02AD12AADAABEAACFAAD8AE720161017C
:100D0000E2960FACE29704C0CC0CDD1CEE1CFF1C7D
:100D10000A94D2F7C9AADAAAEBAAFCAA6401530181
:100D2000062E04C0D694C794B794A7940A94D2F719
:100D3000D401C301E2960FACE29704C0880F991F5B
:100D4000AA1FBB1F0A94D2F72196ECACFDAC0EADE6
:100D50001FAD219704C016950795F794E7946A95FF
:100D6000D2F737014801682A792A8A2A9B2A6DA678
:100D70007EA68FA698AAEDA8FEA80FA918AD3801E7
:100D8000882499249801870120703070A5960CAFB3
:100D90001DAF2EAF3FAFA597C601B501A4019301CA
:100DA0000E94A7367B018C01C601B501A401930105
:100DB0000E94A736C901DA011C012D01C201B1014F
:100DC000A5962CAD3DAD4EAD5FADA5970E94883682
:100DD0009B01AC018701FF24EE24ADA4BEA4CFA4E7
:100DE000D8A8C601AA27BB2757016801A82AB92A93
:100DF000CA2ADB2AA216B306C406D50600F5089453
:100E00002108310841085108EDA8FEA80FA918AD26
:100E1000AE0CBF1CC01ED11EAE14BF04C006D1064E
:100E200070F0A216B306C406D50648F4089421084B
:100E3000310841085108AE0CBF1CC01ED11EA21AB9
:100E4000B30AC40AD50AC601B501A40193010E94E0
:100E5000A7367B018C01C601B501A40193010E9454
:100E6000A736C901DA013C014D01C401B301A596C1
:100E70002CAD3DAD4EAD5FADA5970E9488369B0170
:100E8000AC018701FF24EE248DA59EA5AFA5B8A9CE
:100E9000A070B07057016801A82AB92ACA2ADB2AB3
:100EA000A216B306C406D50600F5089461087108B9
:100EB000810891086DA97EA98FA998ADA60EB71ECD
:100EC000C81ED91EA616B706C806D90670F0A21607
:100ED000B306C406D50648F4089461087108810871
:100EE0009108A60EB71EC81ED91ED601C501821BC9
:100EF000930BA40BB50B89A79AA7ABA7BCA7D101ED
:100F00009927882764015301A82AB92ACA2ADB2A0B
:100F10002596ACAEBDAECEAEDFAE2597860175018F
:100F20002FEF3FEF40E050E0E222F32204231523AD
:100F3000A60166277727AD964CAF5DAF6EAF7FAF4A
:100F4000AD97A9A8BAA8CBA8DCA86FEF7FEF80E087
:100F500090E0A622B722C822D92289A99AA9ABA9D2
:100F6000BCA91D0144245524C801B701A60195015F
:100F70000E948836A9966CAF7DAF8EAF9FAFA997C0
:100F8000C801B701A20191010E9488363B014C01C2
:100F9000AD966CAD7DAD8EAD9FADAD97A6019501C3
:100FA0000E9488367B018C01AD966CAD7DAD8EAD17
:100FB0009FADAD97A20191010E9488365B016C0143
:100FC000A8019701260D371D481D591DA9966CAC27
:100FD0007DAC8EAC9FACA997C401AA27BB27280F74
:100FE000391F4A1F5B1F2E153F054007510748F464
:100FF000E12CF12C61E0062F112DAE0CBF1CC01EA0
:10100000D11ECA01AA27BB27BC01CD016A0D7B1DD9
:101010008C1D9D1D69A47AA48BA49CA466167706DA
:101020008806990650F1661577058805990509F037
:101030004DC0D90199278827A9962CAD3DAD4EAD5D
:101040005FADA99740705070820F931FA41FB51F0A
:1010500021962CAD3DAD4EAD5FAD2197E2960FAC24
:10106000E29704C0220F331F441F551F0A94D2F782
:10107000281739074A075B0748F525960CAD1DADC3
:101080002EAD3FAD259701501040204030402596B1
:101090000CAF1DAF2EAF3FAF259718C06624772445
:1010A000430121E030E040E050E025962CAF3DAF19
:1010B0004EAF5FAF25970DC0662477244301259678
:1010C0001CAE1DAE1EAE1FAE259703C0662477244E
:1010D0004301FE01B19688E0DF011D928A95E9F790
:1010E0002596ACACBDACCEACDFAC2597A9A2BAA21C
:1010F000CBA2DCA26DA27EA28FA298A622962FADD3
:1011000022973AA14BA15CA1662D7EA1DFA098A5F4
:10111000E196ECACFDAC0EAD1FADE197E114F1042E
:101120000105110509F456C0219581E0121608F059
:1011300080E03195E1E0131608F0E0E0932E981A74
:1011400081E0391508F080E0E82B4195F1E01416B4
:1011500008F0F0E0A42EAE1A81E04A1508F080E015
:10116000F82B5195E1E0151608F0E0E0B52EBF1A16
:1011700081E05B1508F080E0E82B6195F1E0161640
:1011800008F0F0E0A62FAE1B81E06A1708F080E0BF
:10119000F82B7195E1E0171608F0E0E0C72ECF1AA2
:1011A00081E07C1508F080E0E82B8D2D8195F1E041
:1011B000181608F0F0E0D82EDE1AE1E08D1508F0E0
:1011C000E0E0FE2B892F8195392DA5016A2F7C2D1A
:1011D000982F9F1B8D2DCE58DF4FE2E10C94E53602
:1011E000A7E7B0E0E6EFF8E00C94C936982E892E18
:1011F000712E88E0FE013196DF01682E1D926A94FF
:10120000E9F729833A834B835C836D837E839F82D6
:101210009887FE013996DF011D928A95E9F7A98624
:10122000BA86CB86DC86ED86FE860F87188B8D818D
:101230009E81AF81B885B7FD07C0E1961CAE1DAE9B
:101240001EAE1FAEE19764C0219581E0121608F032
:1012500080E0319591E0131608F090E0B32FB81BB1
:1012600081E03B1708F080E0982B419531E014169F
:1012700008F030E0A42FA91B81E04A1708F080E0B5
:10128000382B519591E0151608F090E0F52FF31BDF
:1012900081E05F1708F080E0982B619531E0161629
:1012A00008F030E0E62FE91B81E06E1708F080E0DF
:1012B000382B719541E0171608F040E0572F531B6B
:1012C00081E0751708F080E0482B892D819591E029
:1012D000181608F090E0682E641A462D31E0861545
:1012E00008F030E0932B882D8195891B2983BA83E0
:1012F000AB83FC83ED835E834F8388872FEF3FEFC3
:101300004FEF5FEFE1962CAF3DAF4EAF5FAFE19790
:101310008D859E85AF85B889B7FF5AC0A19481E0BD
:101320001A1408F080E0B19491E01B1408F090E0EA
:101330006B2D681B81E0B61608F080E0982BC194F5
:1013400021E01C1408F020E05C2D591B81E0C5163B
:1013500008F080E0282BD19491E01D1408F090E073
:101360004D2D421B81E0D41608F080E0982BE194CB
:1013700021E01E1408F020E03E2D391B81E0E31629
:1013800008F080E0282BF19491E01F1408F090E021
:101390007F2D721B272F81E0F71608F080E0982B35
:1013A000019511E0101608F010E0802F891B982F8E
:1013B00081E0091708F080E0182B872D8195811BAB
:1013C000A9866A875B874C873D872E879F87888B96
:1013D00099812A813B814C815D816E817F81A885C5
:1013E000B9851A850B85FC84ED84DE84CF84B888AA
:1013F00088E0E9E18E2E912C8C0E9D1EF401682E62
:1014000011926A94E9F7998F2A8F3B8F4C8F5D8FE9
:101410006E8F7F8FA8A39E012F5D3F4FF901119220
:101420008A95E9F7B9A31AA30BA3FCA2EDA2DEA249
:10143000CFA2B8A629A03AA04BA05CA0ADA0BEA0A8
:10144000CFA0D8A4498D5A8D6B8D7C8DE5964FAF7A
:10145000E597E6965FAFE697E7966FAFE797E89672
:101460007FAFE897E8966CAC7DAC8EAC9FACE8970C
:101470002D966CAE7DAE8EAE9FAE2D978D8D9E8DD2
:101480002F8D38A13C01490161966CAE7DAE8EAEC8
:101490009FAE6197A114B104C104D10409F028C31F
:1014A000621473048404950408F00EC100E0201651
:1014B00000E0300601E0400600E0500688F41FEF2F
:1014C000211631044104510439F030F088E0E82E4F
:1014D000F12C012D112D18C0EE24FF24870114C01A
:1014E00020E0221620E0320620E0420621E05206EB
:1014F00030F0B8E1EB2EF12C012D112D05C0A0E14B
:10150000EA2EF12C012D112DD201C1010E2C04C0A7
:10151000B695A795979587950A94D2F78F529F4FC6
:10152000DC012C9180E290E0A0E0B0E08E199F09F0
:10153000A00BB10B5C016D01A21AB108C108D10862
:101540006596ACAEBDAECEAEDFAE6597A114B1046C
:10155000C104D10409F445C062966FAD6297062EAE
:1015600004C0220C331C441C551C0A94D2F7A4015D
:101570009301062E04C0220F331F441F551F0A94E7
:10158000D2F780E290E08A199B09E896CCACDDACFA
:10159000EEACFFACE89704C0F694E794D794C794F8
:1015A0008A95D2F787017601E22AF32A042B152BBC
:1015B0006196ECAEFDAE0EAF1FAF6197E8960CAD35
:1015C0001DAD2EAD3FADE89704C0000F111F221FC7
:1015D000331F6A95D2F72D960CAF1DAF2EAF3FAFDC
:1015E0002D97320188249924A201910140705070F6
:1015F00069962CAF3DAF4EAF5FAF699761966CAD0A
:101600007DAD8EAD9FAD6197A40193010E94A73679
:101610007B018C0161966CAD7DAD8EAD9FAD619708
:10162000A40193010E94A736CA01B90169962CADA5
:101630003DAD4EAD5FAD69970E9488369B01AC0110
:101640008701FF24EE242D96ACACBDACCEACDFAC54
:101650002D97C601AA27BB2757016801A82AB92AD6
:10166000CA2ADB2AA216B306C406D50690F4A20C39
:10167000B31CC41CD51CA214B304C404D50448F084
:10168000A216B306C406D50620F4A20CB31CC41CD3
:10169000D51CA21AB30AC40AD50AC601B501A40111
:1016A00093010E94A7367B018C01C601B501A401FC
:1016B00093010E94A736CA01B90169962CAD3DADD0
:1016C0004EAD5FAD6997C8C1211431044104510486
:1016D00071F461E070E080E090E020E030E040E014
:1016E00050E00E94A736C901DA011C012D0100E07B
:1016F000201600E0300601E0400600E0500688F4C5
:101700001FEF211631044104510439F030F068E034
:10171000E62EF12C012D112D18C0EE24FF24870197
:1017200014C020E0221620E0320620E0420621E02C
:10173000520630F058E1E52EF12C012D112D05C097
:1017400040E1E42EF12C012D112DD201C1010E2C0E
:1017500004C0B695A795979587950A94D2F78F52AE
:101760009F4FDC012C9130E2A32EB12CC12CD12C47
:10177000D601C5018E199F09A00BB10B7C018D010B
:10178000E21AF108010911096596ECAEFDAE0EAF43
:101790001FAF6597E114F1040105110539F46401E7
:1017A0005301A218B308C408D508ECC06296FFAC78
:1017B0006297E496FFAEE4970F2C04C0220C331C12
:1017C000441C551C0A94D2F78A2D8F1964015301C9
:1017D000082E04C0D694C794B794A7940A94D2F75D
:1017E000A401930104C0220F331F441F551FFA9414
:1017F000D2F7E8966CAC7DAC8EAC9FACE89704C099
:1018000096948794779467948A95D2F784017301AC
:10181000E22AF32A042B152B2996ECAEFDAE0EAF6F
:101820001FAF2997320188249924920181012070E9
:1018300030706D960CAF1DAF2EAF3FAF6D97C601E8
:10184000B501A40193010E94A7367B018C01C6015A
:10185000B501A40193010E94A736CA01B9016D9692
:101860002CAD3DAD4EAD5FAD6D970E9488369B01AE
:10187000AC018701FF24EE242996ACACBDACCEAC04
:10188000DFAC2997C601AA27BB275C016D01AE28F2
:10189000BF28C02AD12AA216B306C406D50690F4E2
:1018A000A20CB31CC41CD51CA214B304C404D504DC
:1018B00048F0A216B306C406D50620F4A20CB31C49
:1018C000C41CD51CA21AB30AC40AD50AC601B501A4
:1018D000A40193010E94A7367B018C01C601B501CA
:1018E000A40193010E94A736CA01B9016D962CADDF
:1018F0003DAD4EAD5FAD6D970E9488369B01AC014A
:101900008701FF24EE2429968CAD9DADAEADBFAD11
:101910002997A070B07057016801A82AB92ACA2A6D
:10192000DB2AA216B306C406D50690F4A20CB31C9B
:10193000C41CD51CA214B304C404D50448F0A216D8
:10194000B306C406D50620F4A20CB31CC41CD51CD7
:10195000E896ECACFDAC0EAD1FADE897E4960FAC8D
:10196000E49704C0EE0CFF1C001F111F0A94D2F76D
:101970002D96ECAEFDAE0EAF1FAF2D97A21AB30A97
:10198000C40AD50A32018824992492018101207069
:101990003070A1960CAF1DAF2EAF3FAFA197C6011F
:1019A000B501A40193010E94A7367B018C01C601F9
:1019B000B501A40193010E94A736CA01B901A196FD
:1019C0002CAD3DAD4EAD5FADA1970E9488369B0119
:1019D000AC018701FF24EE242D96ACACBDACCEAC9F
:1019E000DFAC2D97C601AA27BB2757016801A82A9B
:1019F000B92ACA2ADB2AA216B306C406D50690F471
:101A0000A20CB31CC41CD51CA214B304C404D5047A
:101A100048F0A216B306C406D50620F4A20CB31CE7
:101A2000C41CD51CA21AB30AC40AD50AC601B50142
:101A3000A40193010E94A7367B018C01C601B50168
:101A4000A40193010E94A736CA01B901A1962CAD49
:101A50003DAD4EAD5FADA1970E9488369B01AC01B4
:101A60008701FF24EE242D968CAD9DADAEADBFADAC
:101A70002D97A070B070E82AF92A0A2B1B2BE216CA
:101A8000F3060407150790F4E20CF31C041D151D62
:101A9000E214F3040405150548F0E216F306040702
:101AA000150720F4E20CF31C041D151DE21AF30ABD
:101AB000040B150BD801C70162960FAC629704C0E6
:101AC000B695A795979587950A94D2F789A79AA76F
:101AD000ABA7BCA71DA61EA61FA618AA898B8AA500
:101AE0008A8B8BA58B8B8CA58C8B8DA58D8B2FC317
:101AF0006A147B048C049D0448F4498B5A8B6B8BCD
:101B00007C8B8D8B9E8B2F8B388F27C300E0A0168C
:101B100000E0B00601E0C00600E0D00688F41FEF48
:101B2000A116B104C104D10439F030F028E0E22E4E
:101B3000F12C012D112D18C0EE24FF24870114C0B3
:101B400020E0A21620E0B20620E0C20621E0D20684
:101B500030F098E1E92EF12C012D112D05C080E126
:101B6000E82EF12C012D112DD601C5010E2C04C03B
:101B7000B695A795979587950A94D2F78F529F4F60
:101B8000DC012C9180E290E0A0E0B0E08E199F098A
:101B9000A00BB10B821B9109A109B1090097A10506
:101BA000B10509F059C0A614B704C804D90470F0EF
:101BB000E896ECACFDAC0EAD1FADE897E214F30473
:101BC0000405150518F4D801C7012FC0E8968CAD9F
:101BD0009DADAEADBFADE89782199309A409B509D3
:101BE000A40193012A193B094C095D09AA24BB24CD
:101BF0006501E8966CAC7DAC8EAC9FACE89768163E
:101C000079068A069B0628F411E0A12EB12CC12C7E
:101C1000D12C79018A01EA18FB080C091D0961968B
:101C2000ECAEFDAE0EAF1FAF619789A79AA7ABA729
:101C3000BCA761960CAD1DAD2EAD3FAD61970DA754
:101C40001EA72FA738AB898B8AA58A8B8BA58B8B78
:101C50008CA58C8B0D8B7BC2E3968FAFE397A6018F
:101C60009501082E04C0220F331F441F551F0A94EC
:101C7000D2F710E2181BE2961FAFE297D201C10122
:101C8000012E04C0B695A795979587950A94D2F72B
:101C90005C016D01A22AB32AC42AD52A2596ACAECE
:101CA000BDAECEAEDFAE259772016101E3960FACFB
:101CB000E39704C0CC0CDD1CEE1CFF1C0A94D2F789
:101CC0002196CCAEDDAEEEAEFFAE2197640153019E
:101CD000012E04C0D694C794B794A7940A94D2F75F
:101CE000A4019301E3960FACE39704C0220F331FC6
:101CF000441F551F0A94D2F7E8968CAD9DADAEAD4A
:101D0000BFADE89704C0B695A795979587951A95A6
:101D1000D2F77C018D01E22AF32A042B152BE9AEC0
:101D2000FAAE0BAF1CAFE8960CAD1DAD2EAD3FADBE
:101D3000E897E3960FACE39704C0000F111F221F32
:101D4000331F0A94D2F70DAB1EAB2FAB38AF2596DD
:101D50002CAD3DAD4EAD5FAD25973A018824992459
:101D600040705070A5962CAF3DAF4EAF5FAFA597BA
:101D7000C601B501A40193010E94A7367B018C0125
:101D8000C601B501A40193010E94A736C901DA0179
:101D90001C012D01C201B101A5962CAD3DAD4EAD8A
:101DA0005FADA5970E9488369B01AC018701FF2497
:101DB000EE24A9ACBAACCBACDCACC601AA27BB27DD
:101DC00057016801A82AB92ACA2ADB2AA216B30633
:101DD000C406D50610F508942108310841085108B9
:101DE0002596ECACFDAC0EAD1FAD2597AE0CBF1C1F
:101DF000C01ED11EAE14BF04C006D10670F0A216DC
:101E0000B306C406D50648F40894210831084108F1
:101E10005108AE0CBF1CC01ED11EA21AB30AC40AC0
:101E2000D50AC601B501A40193010E94A7367B0122
:101E30008C01C601B501A40193010E94A736C90116
:101E4000DA013C014D01C401B301A5962CAD3DADB5
:101E50004EAD5FADA5970E9488369B01AC0187010E
:101E6000FF24EE2489AD9AADABADBCADA070B070CF
:101E700057016801A82AB92ACA2ADB2AA216B30682
:101E8000C406D50610F50894610871088108910808
:101E900025966CAD7DAD8EAD9FAD2597A60EB71E78
:101EA000C81ED91EA616B706C806D90670F0A21617
:101EB000B306C406D50648F4089461087108810881
:101EC0009108A60EB71EC81ED91ED601C501821BD9
:101ED000930BA40BB50B89AB9AABABABBCABD101ED
:101EE0009927882784017301E82AF92A0A2B1B2BDA
:101EF0008FEFA82E8FEFB82EC12CD12CAE20BF2093
:101F0000C022D12278010027112721966CAC7DAC2C
:101F10008EAC9FAC21972FEF3FEF40E050E0622264
:101F200073228422952221966CAD7DAD8EAD9FAD3E
:101F30002197AC0166277727AD964CAF5DAF6EAFAA
:101F40007FAFAD97C601B501A40193010E94883609
:101F5000A9966CAF7DAF8EAF9FAFA997C601B501B3
:101F6000AD962CAD3DAD4EAD5FADAD970E948836C0
:101F70001B012C01C801B701A40193010E948836FE
:101F80005B016C01C801B701AD962CAD3DAD4EAD06
:101F90005FADAD970E9488367B018C01A60195014B
:101FA000220D331D441D551DA9966CAC7DAC8EAC25
:101FB0009FACA997C401AA27BB27280F391F4A1F26
:101FC0005B1F2A153B054C055D0548F4812C912CBF
:101FD000E1E0AE2EB12CE80CF91C0A1D1B1DCA0154
:101FE000AA27BB2757016801A80EB91ECA1EDB1E0F
:101FF000A90133272227A9968CAD9DADAEADBFAD0B
:10200000A997A070B070280F391F4A1F5B1FE9A85D
:10201000FAA80BA91CA9EA14FB040C051D0570F015
:10202000AE14BF04C006D10689F56DA97EA98FA99B
:1020300098AD621773078407950740F5DA01C90167
:1020400021966CAC7DAC8EAC9FAC2197861997091C
:10205000A809B9092596ECACFDAC0EAD1FAD2597CE
:10206000AE18BF08C00AD10AEE24FF248701281742
:1020700039074A075B0728F421E0E22EF12C012DF5
:10208000112DAE18BF08C00AD10A02C0DA01C90179
:102090006DA87EA88FA898AC681A790A8A0A9B0A4C
:1020A00009A91AA92BA93CA90A191B092C093D0940
:1020B000580169012224332421012DA93EA94FA9E9
:1020C00058AD261537054805590528F481E0282E16
:1020D000312C412C512C86017501E218F3080409BA
:1020E0001509A8019701E2960FACE29704C0220FF0
:1020F000331F441F551F0A94D2F7D401C301E3963E
:102100000FACE39704C0B695A795979587950A9469
:10211000D2F7282B392B4A2B5B2B29A73AA74BA7A1
:102120005CA7E3960FACE39704C016950795F79468
:10213000E7940A94D2F7EDA6FEA60FA718AB298B59
:102140008AA58A8B8BA58B8B8CA58C8BED8A8EA513
:102150008E8B8FA58F8B88A9888FE1964CAD5DAD56
:102160006EAD7FADE197411551056105710509F42B
:1021700067C089892A893B894C895D89AE89BF8975
:10218000188DF82FF19591E01F1608F090E0822F3E
:10219000819521E0181608F020E0E82FE91B91E076
:1021A0008E1708F090E0292B832F819531E01816C7
:1021B00008F030E0782F721B91E0871708F090E06C
:1021C000392B842F819521E0181608F020E0682F24
:1021D000631B91E0861708F090E0292B852F8195ED
:1021E00031E0181608F030E0582F521B91E08517A7
:1021F00008F090E0392B8A2F819521E0181608F01D
:1022000020E0482F431B91E0841708F090E0292B31
:102210008B2F819591E0181608F090E0382F321B33
:1022200021E0831708F020E0922B812F8195891BF4
:10223000F98BEA8B7B8B6C8B5D8B4E8B3F8B888F06
:1022400029893A894B895C896D897E898F89988D26
:10225000C958DF4FE2E10C94E536AEE5B0E0E3E3C8
:10226000F1E10C94C936A8E04E010894811C911C40
:10227000F4016A2E11926A94E9F729833A834B8319
:102280005C836D837E838F839887CE010996FC01E2
:102290001192AA95E9F7A986BA86CB86DC86ED86E7
:1022A000FE860F87188B29843A844B845C84ED84E6
:1022B000FE840F85188969807A808B809C806DA64A
:1022C0007EA68FA698AA6D807E808F809884E11468
:1022D000F1040105110509F0B3C362147304840409
:1022E000950408F03DC100E0201600E0300601E052
:1022F000400600E0500688F41FEF21163104410427
:10230000510439F030F048E0E42EF12C012D112D6C
:1023100018C0EE24FF24870114C020E0221620E01C
:10232000320620E0420621E0520630F038E1E32E8A
:10233000F12C012D112D05C020E1E22EF12C012DF3
:10234000112DD201C1010E2C04C0B695A795979509
:1023500087950A94D2F78F529F4FDC012C9180E22F
:1023600090E0A0E0B0E08E199F09A00BB10B7C01BA
:102370008D01E21AF10801091109E114F1040105C6
:102380001105A1F10E2C04C0220C331C441C551C59
:102390000A94D2F7A40193010E2C04C0220F331F1C
:1023A000441F551F0A94D2F780E290E08E199F09CE
:1023B0006DA47EA48FA498A804C096948794779463
:1023C00067948A95D2F7622A732A842A952AADA443
:1023D000BEA4CFA4D8A804C0AA0CBB1CCC1CDD1C76
:1023E000EA94D2F7ADA6BEA6CFA6D8AA6201EE2483
:1023F000FF24CDAADEAAEFAAF8AE920181012070D7
:10240000307009AF1AAF2BAF3CAFC401B301A701C5
:1024100096010E94A7367B018C01C401B3012DA94E
:102420003EA94FA958AD0E94A736C901DA013C0167
:102430004D01C401B30129AD3AAD4BAD5CAD0E9475
:1024400088369B01AC018701FF24EE24ADA4BEA415
:10245000CFA4D8A8C601AA27BB2757016801A82A7C
:10246000B92ACA2ADB2AA216B306C406D506E0F4A6
:1024700008946108710881089108A20CB31CC41C5F
:10248000D51CA214B304C404D50470F0A216B3067C
:10249000C406D50648F408946108710881089108BB
:1024A000A20CB31CC41CD51CA21AB30AC40AD50AB8
:1024B000C601B5012DA93EA94FA958AD0E94A73666
:1024C0007B018C01C601B5012DA93EA94FA958ADCC
:1024D0000E94A736C901DA015C016D01C601B50190
:1024E00029AD3AAD4BAD5CAD0E9488369B01AC0185
:1024F0008701FF24EE248DA59EA5AFA5B8A9A070E5
:10250000B070E82AF92A0A2B1B2BE216F3060407FF
:102510001507C0F40894A108B108C108D108E20C5D
:10252000F31C041D151DE214F3040405150550F0F9
:10253000E216F3060407150728F40894A108B10869
:10254000C108D108D3019927882786017501E82A97
:10255000F92A0A2B1B2BE9AAFAAA0BAB1CABCFC496
:10256000211431044104510471F461E070E080E011
:1025700090E020E030E040E050E00E94A736C90142
:10258000DA011C012D0100E0201600E0300601E018
:10259000400600E0500688F41FEF21163104410484
:1025A000510431F028F048E050E060E070E017C0DE
:1025B00040E050E060E070E012C020E0221620E031
:1025C000320620E0420621E0520628F048E150E0C1
:1025D00060E070E004C040E150E060E070E0D201F3
:1025E000C101042E04C0B695A795979587950A94C6
:1025F000D2F78F529F4FDC012C91E0E2EE2EF12CAE
:10260000012D112DD801C701841B950BA60BB70B0B
:10261000821B9109A109B1090097A105B10561F4D7
:1026200064015301A218B308C408D50831E0632E31
:10263000712C812C912C1EC16F968FAF6F97082E35
:1026400004C0220C331C441C551C0A94D2F7EE2DF6
:10265000E81B640153010E2E04C0D694C794B794AE
:10266000A7940A94D2F7A40193016F960FAC6F97C9
:1026700004C0220F331F441F551F0A94D2F76DA4C4
:102680007EA48FA498A80E2E04C096948794779465
:1026900067940A94D2F784017301E22AF32A042B87
:1026A000152BE9A6FAA60BA71CA7320188249924AA
:1026B000920181012070307021960CAF1DAF2EAFBA
:1026C0003FAF2197C601B501A40193010E94A7362F
:1026D0007B018C01C601B501A40193010E94A736BC
:1026E000C901DA0125968CAF9DAFAEAFBFAF25977C
:1026F000BC01CD0121962CAD3DAD4EAD5FAD219716
:102700000E9488369B01AC018701FF24EE24A9A416
:10271000BAA4CBA4DCA4C601AA27BB275C016D0127
:10272000AE28BF28C02AD12AA216B306C406D506F1
:1027300060F525966CAD7DAD8EAD9FAD2597615052
:1027400070408040904025966CAF7DAF8EAF9FAFBC
:102750002597A20CB31CC41CD51CA214B304C4043A
:10276000D50498F0A216B306C406D50670F46150DD
:1027700070408040904025966CAF7DAF8EAF9FAF8C
:102780002597A20CB31CC41CD51CA21AB30AC40AF8
:10279000D50AC601B501A40193010E94A7367B01A9
:1027A0008C01C601B501A40193010E94A736C9019D
:1027B000DA013C014D01C401B30121962CAD3DADC0
:1027C0004EAD5FAD21970E9488369B01AC01870119
:1027D000FF24EE2489A59AA5ABA5BCA5A070B07076
:1027E00057016801A82AB92ACA2ADB2AA216B30609
:1027F000C406D506E0F408946108710881089108C0
:10280000A20CB31CC41CD51CA214B304C404D5046C
:1028100070F0A216B306C406D50648F40894610801
:10282000710881089108A20CB31CC41CD51C8DA58D
:102830009EA5AFA5B8A96F960FAC6F9704C0880F7F
:10284000991FAA1FBB1F0A94D2F78DA79EA7AFA7F7
:10285000B8ABA21AB30AC40AD50A2596ECACFDACF3
:102860000EAD1FAD2597D70199278827682A792AA9
:102870008A2A9B2A82012227332729960CAF1DAF73
:102880002EAF3FAF2997A2019101407050702D9655
:102890002CAF3DAF4EAF5FAF2D97C601B501299666
:1028A0002CAD3DAD4EAD5FAD29970E94A7367B01A3
:1028B0008C01C601B50129962CAD3DAD4EAD5FAD85
:1028C00029970E94A736C901DA0161968CAF9DAFA6
:1028D000AEAFBFAF6197BC01CD012D962CAD3DAD24
:1028E0004EAD5FAD2D970E9488369B01AC018701EC
:1028F000FF24EE24ADA4BEA4CFA4D8A8C601AA2765
:10290000BB2757016801A82AB92ACA2ADB2AA216BE
:10291000B306C406D50660F561966CAD7DAD8EAD8F
:102920009FAD6197615070408040904061966CAF60
:102930007DAF8EAF9FAF6197A20CB31CC41CD51C9A
:10294000A214B304C404D50498F0A216B306C406B6
:10295000D50670F4615070408040904061966CAF35
:102960007DAF8EAF9FAF6197A20CB31CC41CD51C6A
:10297000A21AB30AC40AD50AC601B50129962CAD1C
:102980003DAD4EAD5FAD29970E94A7367B018C010E
:10299000C601B50129962CAD3DAD4EAD5FAD299771
:1029A0000E94A736C901DA015C016D01C601B501BB
:1029B0002D962CAD3DAD4EAD5FAD2D970E94883666
:1029C0009B01AC018701FF24EE248DA59EA5AFA538
:1029D000B8A9A070B070E82AF92A0A2B1B2BE216BE
:1029E000F30604071507C0F40894A108B108C1084C
:1029F000D108E20CF31C041D151DE214F3040405B8
:102A0000150550F0E216F3060407150728F408949C
:102A1000A108B108C108D1086196ECACFDAC0EADBF
:102A20001FAD6197D7019927882796018501082B4B
:102A3000192B2A2B3B2B09AB1AAB2BAB3CAB62C23D
:102A40006E147F048006910608F451C220E0E2165D
:102A500020E0F20621E0020720E0120788F43FEFB1
:102A6000E316F1040105110531F028F048E050E0CB
:102A700060E070E017C040E050E060E070E012C03D
:102A800040E0E41640E0F40640E0040741E01407AB
:102A900028F048E150E060E070E004C040E150E020
:102AA00060E070E0D801C701042E04C0B695A79578
:102AB000979587950A94D2F78F529F4FDC012C91FE
:102AC00030E2A32EB12CC12CD12CD601C501841B20
:102AD000950BA60BB70B821B9109A109B1090097B1
:102AE000A105B10589F4E614F7040805190508F4F1
:102AF000F2C16DA47EA48FA498A862147304840408
:102B0000950408F0E8C1F3C16E968FAF6E97082E5A
:102B100004C0EE0CFF1C001F111F0A94D2F76A2D8F
:102B2000681BD201C101062E04C0B695A7959795E2
:102B300087950A94D2F75C016D01AE28BF28C02AA0
:102B4000D12AADA2BEA2CFA2D8A6720161016E9613
:102B50000FAC6E9704C0CC0CDD1CEE1CFF1C0A945D
:102B6000D2F7C9A2DAA2EBA2FCA264015301062E9D
:102B700004C0D694C794B794A7940A94D2F7D4010A
:102B8000C3016E960FAC6E9704C0880F991FAA1FE1
:102B9000BB1F0A94D2F7EDA4FEA40FA518A904C088
:102BA00016950795F794E7946A95D2F7370148018F
:102BB000682A792A8A2A9B2A6D8E7E8E8F8E98A209
:102BC000EDA0FEA00FA118A5380188249924980132
:102BD00087012070307065960CAF1DAF2EAF3FAFF0
:102BE0006597C601B501A40193010E94A7367B0138
:102BF0008C01C601B501A40193010E94A736C90149
:102C0000DA011C012D01C201B10165962CAD3DAD6B
:102C10004EAD5FAD65970E9488369B01AC01870180
:102C2000FF24EE24AD8CBE8CCF8CD8A0C601AA2781
:102C3000BB2757016801A82AB92ACA2ADB2AA2168B
:102C4000B306C406D50600F50894210831084108EA
:102C50005108EDA0FEA00FA118A5AE0CBF1CC01E10
:102C6000D11EAE14BF04C006D10670F0A216B30682
:102C7000C406D50648F408942108310841085108D3
:102C8000AE0CBF1CC01ED11EA21AB30AC40AD50ABC
:102C9000C601B501A40193010E94A7367B018C01F6
:102CA000C601B501A40193010E94A736C901DA014A
:102CB0003C014D01C401B30165962CAD3DAD4EAD57
:102CC0005FAD65970E9488369B01AC018701FF24A8
:102CD000EE248D8D9E8DAF8DB8A1A070B070570180
:102CE0006801A82AB92ACA2ADB2AA216B306C40692
:102CF000D50600F5089461087108810891086DA156
:102D00007EA18FA198A5A60EB71EC81ED91EA61615
:102D1000B706C806D90670F0A216B306C406D506D3
:102D200048F408946108710881089108A60EB71E3E
:102D3000C81ED91ED601C501821B930BA40BB50B6F
:102D4000898F9A8FAB8FBC8FD10199278827640117
:102D50005301A82AB92ACA2ADB2AA9AABAAACBAA45
:102D6000DCAA860175012FEF3FEF40E050E0E22240
:102D7000F32204231523A601662777276D964CAF0F
:102D80005DAF6EAF7FAF6D97A9A0BAA0CBA0DCA05E
:102D90006FEF7FEF80E090E0A622B722C822D92211
:102DA00089A19AA1ABA1BCA11D0144245524C8014D
:102DB000B701A60195010E94883669966CAF7DAF78
:102DC0008EAF9FAF6997C801B701A20191010E9420
:102DD00088363B014C016D966CAD7DAD8EAD9FADDF
:102DE0006D97A60195010E9488367B018C016D9636
:102DF0006CAD7DAD8EAD9FAD6D97A20191010E942E
:102E000088365B016C01A8019701260D371D481D0E
:102E1000591D69966CAC7DAC8EAC9FAC6997C401B2
:102E2000AA27BB27280F391F4A1F5B1F2E153F05F6
:102E30004007510748F4E12CF12C61E0062F112DD9
:102E4000AE0CBF1CC01ED11ECA01AA27BB27BC01E5
:102E5000CD016A0D7B1D8C1D9D1D698C7A8C8B8C20
:102E60009C8C661677068806990640F166157705EC
:102E70008805990509F043C0D901992788276996E3
:102E80002CAD3DAD4EAD5FAD699740705070820F77
:102E9000931FA41FB51F2DA53EA54FA558A96E963B
:102EA0000FAC6E9704C0220F331F441F551F0A94A6
:102EB000D2F7281739074A075B0708F509A91AA9A5
:102EC0002BA93CA9015010402040304009AB1AAB5F
:102ED0002BAB3CAB14C066247724430121E030E0E7
:102EE00040E050E029AB3AAB4BAB5CAB0BC0662487
:102EF0007724430119AA1AAA1BAA1CAA03C0662494
:102F000077244301FE01719688E0DF011D928A95C6
:102F1000E9F7A9A8BAA8CBA8DCA8A98ABA8ACB8A5B
:102F2000DC8A6D8A7E8A8F8A988E29A93A894B8994
:102F30005C89662D7E898F89988DC25ADF4FE2E1C8
:102F40000C94E536ABE5B0E0E8EAF7E10C94C9365D
:102F5000A8E04E010894811C911CF4016A2E119284
:102F60006A94E9F729833A834B835C836D837E837C
:102F70008F839887CE010996FC011192AA95E9F7F3
:102F8000A986BA86CB86DC86ED86FE860F87188BEF
:102F900029843A844B845C84AD84BE84CF84D888F1
:102FA00029813A814B815C8169962FAF69976A9636
:102FB0003FAF6A976B964FAF6B976C965FAF6C970E
:102FC0006C966CAC7DAC8EAC9FAC6C9769AA7AAAFF
:102FD0008BAA9CAA6D817E818F8198853B014C01D3
:102FE0006DAA7EAA8FAA98AEA114B104C104D1041F
:102FF00009F004C3621473048404950408F000C14A
:1030000000E0201600E0300601E0400600E0500637
:1030100088F41FEF211631044104510439F030F0D7
:1030200088E0E82EF12C012D112D18C0EE24FF248C
:10303000870114C040E0241640E0340640E0440616
:1030400041E0540630F0B8E1EB2EF12C012D112DAA
:1030500005C0A0E1EA2EF12C012D112DD201C101F4
:103060000E2C04C0B695A795979587950A94D2F72C
:103070008F529F4FDC012C9180E290E0A0E0B0E005
:103080008E199F09A00BB10B5C016D01A21AB1084A
:10309000C108D108A9AEBAAECBAEDCAEA114B10462
:1030A000C104D10409F43FC069AD062E04C0220C4E
:1030B000331C441C551C0A94D2F7A4019301062E1C
:1030C00004C0220F331F441F551F0A94D2F780E219
:1030D00090E08A199B096C96CCACDDACEEACFFACF1
:1030E0006C9704C0F694E794D794C7948A95D2F766
:1030F00087017601E22AF32A042B152BEDAAFEAAFA
:103100000FAB18AF6C968CAD9DADAEADBFAD6C97EF
:1031100004C0880F991FAA1FBB1F6A95D2F789ABFD
:103120009AABABABBCAB320188249924B201A101AC
:103130006070707021964CAF5DAF6EAF7FAF21971E
:103140006DA97EA98FA998ADA40193010E94A7360D
:103150007B018C016DA97EA98FA998ADA401930173
:103160000E94A736CA01B90121962CAD3DAD4EADE6
:103170005FAD21970E9488369B01AC018701FF2437
:10318000EE24A9A8BAA8CBA8DCA8C601AA27BB2709
:1031900057016801A82AB92ACA2ADB2AA216B3064F
:1031A000C406D50690F4A20CB31CC41CD51CA214F2
:1031B000B304C404D50448F0A216B306C406D50669
:1031C00020F4A20CB31CC41CD51CA21AB30AC40A56
:1031D000D50AC601B501A40193010E94A7367B015F
:1031E0008C01C601B501A40193010E94A736CA0152
:1031F000B90121962CAD3DAD4EAD5FAD2197BAC161
:10320000211431044104510471F461E070E080E064
:1032100090E020E030E040E050E00E94A736C90195
:10322000DA011C012D0100E0201600E0300601E06B
:10323000400600E0500688F41FEF211631044104D7
:10324000510439F030F068E0E62EF12C012D112DFB
:1032500018C0EE24FF24870114C040E0241640E08B
:10326000340640E0440641E0540630F058E1E52ED3
:10327000F12C012D112D05C040E1E42EF12C012D82
:10328000112DD201C1010E2C04C0B695A7959795BA
:1032900087950A94D2F78F529F4FDC012C9130E230
:1032A000A32EB12CC12CD12CD601C5018E199F099A
:1032B000A00BB10B7C018D01E21AF1080109110983
:1032C000E9AEFAAE0BAF1CAFE114F1040105110534
:1032D00039F464015301A218B308C408D508E2C048
:1032E000F9AC6896FFAE68970F2C04C0220C331C13
:1032F000441C551C0A94D2F78A2D8F19640153017E
:10330000082E04C0D694C794B794A7940A94D2F711
:10331000A401930104C0220F331F441F551FFA94C8
:10332000D2F76C966CAC7DAC8EAC9FAC6C9704C045
:1033300096948794779467948A95D2F78401730161
:10334000E22AF32A042B152BEDA6FEA60FA718AB35
:10335000320188249924B201A10160707070259611
:103360004CAF5DAF6EAF7FAF2597C601B501A4012D
:1033700093010E94A7367B018C01C601B501A4010F
:1033800093010E94A736CA01B90125962CAD3DAD27
:103390004EAD5FAD25970E9488369B01AC01870139
:1033A000FF24EE24ADA4BEA4CFA4D8A8C601AA27AA
:1033B000BB275C016D01AE28BF28C02AD12AA21606
:1033C000B306C406D50690F4A20CB31CC41CD51CCD
:1033D000A214B304C404D50448F0A216B306C4066C
:1033E000D50620F4A20CB31CC41CD51CA21AB30A27
:1033F000C40AD50AC601B501A40193010E94A736EB
:103400007B018C01C601B501A40193010E94A7367E
:10341000CA01B90125962CAD3DAD4EAD5FAD2597E6
:103420000E9488369B01AC018701FF24EE248DA504
:103430009EA5AFA5B8A9A070B07057016801A82AD1
:10344000B92ACA2ADB2AA216B306C406D50690F406
:10345000A20CB31CC41CD51CA214B304C404D50410
:1034600048F0A216B306C406D50620F4A20CB31C7D
:10347000C41CD51C6C96ECACFDAC0EAD1FAD6C97AE
:1034800068960FAC689704C0EE0CFF1C001F111F5C
:103490000A94D2F7E9AAFAAA0BAB1CABA21AB30A98
:1034A000C40AD50A320188249924B201A1016070AE
:1034B000707029964CAF5DAF6EAF7FAF2997C60194
:1034C000B501A40193010E94A7367B018C01C601BE
:1034D000B501A40193010E94A736CA01B90129963A
:1034E0002CAD3DAD4EAD5FAD29970E9488369B0156
:1034F000AC018701FF24EE24A9A8BAA8CBA8DCA8B8
:10350000C601AA27BB2757016801A82AB92ACA2AD7
:10351000DB2AA216B306C406D50690F4A20CB31C8F
:10352000C41CD51CA214B304C404D50448F0A216CC
:10353000B306C406D50620F4A20CB31CC41CD51CCB
:10354000A21AB30AC40AD50AC601B501A40193019F
:103550000E94A7367B018C01C601B501A40193012D
:103560000E94A736CA01B90129962CAD3DAD4EADDA
:103570005FAD29970E9488369B01AC018701FF242B
:10358000EE2489A99AA9ABA9BCA9A070B070E82AB9
:10359000F92A0A2B1B2BE216F3060407150790F4F1
:1035A000E20CF31C041D151DE214F30404051505BB
:1035B00048F0E216F3060407150720F4E20CF31CAA
:1035C000041D151DE21AF30A040B150BD801C701DF
:1035D00009AC04C0B695A795979587950A94D2F73C
:1035E000898B9A8BAB8BBC8B1D8A1E8A1F8A188E87
:1035F000282F3A894B895C896D890CC36A147B0436
:103600008C049D0408F409C300E0A01600E0B00695
:1036100001E0C00600E0D00688F41FEFA116B10457
:10362000C104D10439F030F028E0E22EF12C012D54
:10363000112D18C0EE24FF24870114C040E0A41609
:1036400040E0B40640E0C40641E0D40630F098E122
:10365000E92EF12C012D112D05C080E1E82EF12C71
:10366000012D112DD601C5010E2C04C0B695A795CC
:10367000979587950A94D2F78F529F4FDC012C9132
:1036800080E290E0A0E0B0E08E199F09A00BB10BA2
:10369000821B9109A109B1090097A105B10509F0A3
:1036A0004FC0A614B704C804D90458F06C96ECAC0B
:1036B000FDAC0EAD1FAD6C97E214F30404051505C7
:1036C00068F16C96ECACFDAC0EAD1FAD6C97E218DA
:1036D000F30804091509A40193012A193B094C09AF
:1036E0005D09AA24BB2465016C966CAD7DAD8EADE1
:1036F0009FAD6C976E157F058007910728F4B1E0A8
:10370000AB2EB12CC12CD12CDA01C9018A199B092D
:10371000AC09BD098DAB9EABAFABB8AFE98AFA8AF5
:103720000B8B1C8B6DA87EA88FA898AC6D8A7E8AA7
:103730008F8A988E2E2D3A894B895C896DA96AC231
:1037400067968FAF6797A6019501082E04C0220FD8
:10375000331F441F551F0A94D2F7A0E2AA2EA81ABD
:103760006696AFAE6697D201C10104C0B695A79523
:1037700097958795AA94D2F76C017D01C22AD32A26
:10378000E42AF52AC9A6DAA6EBA6FCA682017101F5
:1037900067960FAC679704C0EE0CFF1C001F111F4B
:1037A0000A94D2F7EDA2FEA20FA318A76401530159
:1037B00066960FAC669704C0D694C794B794A79446
:1037C0000A94D2F7A401930167960FAC679704C0DF
:1037D000220F331F441F551F0A94D2F76C968CADED
:1037E0009DADAEADBFAD6C9766960FAC669704C04D
:1037F000B695A795979587950A94D2F73C014D0108
:10380000622A732A842A952A69A27AA28BA29CA290
:103810006C96ECACFDAC0EAD1FAD6C9767960FAC23
:10382000679704C0EE0CFF1C001F111F0A94D2F70B
:10383000ED8EFE8E0F8F18A349A55AA56BA57CA50A
:103840003B0188249924607070702D964CAF5DAF59
:103850006EAF7FAF2D97C601B501A40193010E9401
:10386000A7367B018C01C601B501A40193010E941A
:10387000A736C901DA011C012D01C201B1012D9643
:103880002CAD3DAD4EAD5FAD2D970E9488369B01AE
:10389000AC018701FF24EE24A9A0BAA0CBA0DCA034
:1038A000C601AA27BB2757016801A82AB92ACA2A34
:1038B000DB2AA216B306C406D50600F50894210833
:1038C000310841085108E9A4FAA40BA51CA5AE0CC7
:1038D000BF1CC01ED11EAE14BF04C006D10670F0BE
:1038E000A216B306C406D50648F408942108310888
:1038F00041085108AE0CBF1CC01ED11EA21AB30A4B
:10390000C40AD50AC601B501A40193010E94A736D5
:103910007B018C01C601B501A40193010E94A73669
:10392000C901DA013C014D01C401B3012D962CAD52
:103930003DAD4EAD5FAD2D970E9488369B01AC0129
:103940008701FF24EE2489A19AA1ABA1BCA1A0709C
:10395000B07057016801A82AB92ACA2ADB2AA21620
:10396000B306C406D50600F50894610871088108FD
:10397000910869A57AA58BA59CA5A60EB71EC81EA1
:10398000D91EA616B706C806D90670F0A216B30649
:10399000C406D50648F408946108710881089108A6
:1039A000A60EB71EC81ED91ED601C501821B930BD9
:1039B000A40BB50B898F9A8FAB8FBC8FD101992740
:1039C000882784017301E82AF92A0A2B1B2B4FEF61
:1039D000A42E4FEFB42EC12CD12CAE20BF20C0227C
:1039E000D1227801002711276DA07EA08FA098A476
:1039F0004FEF5FEF60E070E064227522862297222D
:103A00008DA19EA1AFA1B8A5BD0188279927659674
:103A10006CAF7DAF8EAF9FAF6597C601B501A401B6
:103A200093010E94883661966CAF7DAF8EAF9FAFD9
:103A30006197C601B50165962CAD3DAD4EAD5FAD4C
:103A400065970E9488361B012C01C801B701A401AB
:103A500093010E9488365B016C01C801B70165962D
:103A60002CAD3DAD4EAD5FAD65970E9488367B01B4
:103A70008C01A6019501220D331D441D551D619633
:103A80006CAC7DAC8EAC9FAC6197C401AA27BB2700
:103A9000280F391F4A1F5B1F2A153B054C055D0582
:103AA00048F4812C912CE1E0AE2EB12CE80CF91CED
:103AB0000A1D1B1DCA01AA27BB2757016801A80EB2
:103AC000B91ECA1EDB1EA9013327222761968CADC1
:103AD0009DADAEADBFAD6197A070B070280F391F1E
:103AE0004A1F5B1FE98CFA8C0B8D1C8DEA14FB04BA
:103AF0000C051D0570F0AE14BF04C006D10669F5B3
:103B00006D8D7E8D8F8D98A1621773078407950741
:103B100020F5DA01C9016DA07EA08FA098A48619B6
:103B20009709A809B909E9A4FAA40BA51CA5AE1820
:103B3000BF08C00AD10AEE24FF24870128173907DD
:103B40004A075B0728F421E0E22EF12C012D112D0C
:103B5000AE18BF08C00AD10A02C0DA01C9016D8CD3
:103B60007E8C8F8C98A0681A790A8A0A9B0A498DE4
:103B70005A8D6B8D7C8D4A195B096C097D095A0140
:103B80006B012224332421016D8D7E8D8F8D98A1B0
:103B9000661577058805990528F481E0282E312CD3
:103BA000412C512C86017501E218F308040915090E
:103BB000A801970166960FAC669704C0220F331FC9
:103BC000441F551F0A94D2F7D401C30167960FAC66
:103BD000679704C0B695A795979587950A94D2F7ED
:103BE000282B392B4A2B5B2B298B3A8B4B8B5C8BED
:103BF00067960FAC679704C016950795F794E794FE
:103C00000A94D2F7ED8AFE8A0F8B188F3A894B8976
:103C10005C896E2D7E898F89988DC55ADF4FE2E1D0
:103C20000C94E536FF920F931F93CF93DF93FF24FD
:103C3000F39403E010E0809167079091680760E0DB
:103C400070E04FEF5FEF20E00E94512E80916907F6
:103C500090916A0760E070E04FEF5FEF20E00E9414
:103C6000512E8091EA018823E9F40E94302880E0F7
:103C700060E00E94342881E290E00E943C29D82F25
:103C8000C0E0D093F101C093F00180E290E00E9487
:103C90003C2990E08C2B9D2B9093F1018093F001B7
:103CA000F092EA01809165079091660763ED71E0FB
:103CB0004FEF5FEF20E00E94512EE091D301F09191
:103CC000D401208131818091F0019091F101281778
:103CD000390711F50E94302880E060E00E94342806
:103CE00080E690E00E94FD2788EE93E00E94A933D1
:103CF00083E064E041E00E94842482E390E00E943B
:103D0000A93383E064E040E00E94842488EE93E0DD
:103D10000E94A93381E080C00E94302880E060E0EA
:103D20000E9434288EE690E00E94FD2784EF91E007
:103D30000E94A9338091D201833008F046C00E94CE
:103D4000302880E060E00E9434288BE790E00E94F9
:103D5000FD2781E060E00E94342887E890E00E941F
:103D6000FD278091D2019801281B3109C901F90171
:103D7000FF0FEE0BFE2F9C014E2F5E2F6E2F7E2F1E
:103D80008E2F9E2F0E947B2684EF91E00E94A93304
:103D90000E94302881E990E00E94FD278091D201A5
:103DA0008F5F8093D2011092ED011092EF0110927B
:103DB000EE0180916D0790916E0760E070E040E049
:103DC00050E020E00E941D2F39C00E94302880E082
:103DD00060E00E94342882EA90E00E94FD2788EE8D
:103DE00093E00E94A9330E94302880EB90E00E946B
:103DF000FD2783E064E041E00E94842482E390E0B8
:103E00000E94A93383E064E040E00E94842488EEAD
:103E100093E00E94A93382E00E94FB1F80915D071E
:103E200090915E070E940C3480915F07909160072B
:103E30000E940C3480E090E00E940C34809169076D
:103E400090916A0760E070E040E050E020E00E945E
:103E50001D2FF1CE1F9380E060E00E9434288DEB8F
:103E600090E00E94FD278091690790916A0760E0C9
:103E700070E040E050E020E00E941D2F1FEF809195
:103E8000690790916A0760E070E04FEF5FEF20E014
:103E90000E94512E8091D1018F3F09F470C08D3363
:103EA00009F455C080916D0790916E0760E070E055
:103EB0004FEF5FEF20E00E94512E81E06091ED0115
:103EC0000E9434288091ED018F5F8093ED018AE29A
:103ED0000E945B264091D10140534093F4018091B0
:103EE000EB01882341F44093F2011092F30181E049
:103EF0008093EB0125C0813019F52091F2013091BA
:103F0000F301442371F0C9019C0173E0220F331FB8
:103F10007A95E1F7880F991F280F391F240F311D5B
:103F20000BC0C9019C0153E0220F331F5A95E1F7E2
:103F3000880F991F280F391F3093F3012093F20146
:103F40001093D10180916D0790916E0711C010936D
:103F5000D101809165079091660765ED71E040E0C1
:103F600050E020E00E941D2F809167079091680724
:103F700060E070E040E050E020E00E941D2F809162
:103F8000690790916A0760E070E040E050E020E04F
:103F90000E941D2F74CF80E290E068EE0E945F299E
:103FA00081E290E067E00E945F2980916D07909127
:103FB0006E0760E070E040E050E020E00E941D2FBE
:103FC00080E090E00E940C34E6CF0E94932880931A
:103FD000D10182E390E00E94A933F7CF10BC83E3C4
:103FE00089B959985898529810BC569A579855982C
:103FF000549A539A0895282F8091F701882311F03D
:1040000084E0089580E090E007C0019637E28031B7
:10401000930711F481E006C05D9BF7CF06C05E9B5D
:10402000FECF80E01092F70108952CB9F8CFFC0183
:104030008091F701882311F084E0089580E090E0FA
:1040400005C0019627E28031920719F05F9BF9CFF6
:1040500004C081E01092F70108958CB1808380E064
:10406000F9CFCF93DF93009711F482E00AC0EC01FF
:1040700005C00E94FB1F2196882319F4888188239C
:10408000C1F7DF91CF910895FC018091F70188235A
:1040900011F081E008953097A9F06115710591F054
:1040A00081E08093F701F093F601E093F5017093BE
:1040B000F9016093F8011092FD0180818CB9569A44
:1040C00080E0089582E00895EF92FF920F931F938E
:1040D000CF93DF938C017B01009711F482E00FC036
:1040E000C0E0D0E008C0C8018C0F9D1F0E941720BF
:1040F000882329F42196CE15DF05A8F380E0DF910F
:10410000CF911F910F91FF90EF9008959C018091A6
:10411000F701882311F081E0089521153105A9F0F8
:104120004115510591F081E08093F7013093FB0137
:104130002093FA015093F9014093F8016093FC0138
:104140001092FD01579A80E0089582E008951F9231
:104150000F920FB60F9211242F933F934F935F93BB
:104160006F937F938F939F93AF93BF93EF93FF933F
:104170009091FD018CB1E091FA01F091FB01E90F02
:10418000F11D80839F5F9093FD018091FC01981742
:1041900051F41092FD011092F701E091F801F091B5
:1041A000F90109955798FF91EF91BF91AF919F91B8
:1041B0008F917F916F915F914F913F912F910F90D0
:1041C0000FBE0F901F9018951F920F920FB60F926F
:1041D00011242F933F934F935F936F937F938F930C
:1041E0009F93AF93BF93EF93FF938091FD018F5FF8
:1041F0008093FD01E091F501F091F601E80FF11DCA
:10420000E081EE2359F41092FD011092F701E09144
:10421000F801F091F9010995569801C0ECB9FF91A8
:10422000EF91BF91AF919F918F917F916F915F912E
:104230004F913F912F910F900FBE0F901F901895A7
:10424000982F80E280B911B8992311F0990F92B993
:1042500086B7806486BF86B7846086BF0895880F5E
:1042600082B986B7806486BF86B7846086BF0895AA
:1042700086B7806286BF86B7806886BF06B607FEAF
:10428000FDCF81B190E0887F883009F091E0892FDF
:10429000089586B7806286BF86B7806886BF86B776
:1042A000846086BF06B607FEFDCF81B1887F80316E
:1042B00011F082E0089580E00895880F83B918987E
:1042C00086B78F7D86BF86B7806886BF86B78460D5
:1042D00086BF06B607FEFDCF81B1887F883111F019
:1042E00083E0089580E00895880F83B9189A86B70F
:1042F0008F7D86BF86B7806886BF86B7846086BF9D
:1043000006B607FEFDCF81B1887F803411F084E0CE
:10431000089580E0089583B986B7806886BF86B720
:10432000846086BF06B607FEFDCF81B1887F8832E4
:1043300011F085E0089580E00895FC0186B780685B
:1043400086BF86B7846086BF06B607FEFDCF81B103
:10435000887F803511F086E0089583B1808380E006
:10436000089583B986B7806886BF86B7846086BFA4
:1043700006B607FEFDCF81B1887F883B11F087E04C
:10438000089580E00895FC0186B7806886BF86B7EF
:10439000846086BF06B607FEFDCF81B1887F803678
:1043A00011F098E001C090E086B7806886BF06B63D
:1043B00007FEFDCF81B1887F803811F098E002C000
:1043C00083B18083892F089586B7806186BF86B7C1
:1043D000806886BF089583B78F7B83BF83B7877F4D
:1043E00083BF12BE89B7816089BF83B7887F83BFCF
:1043F00083B7846083BF089582BF08958CBF0895FA
:104400000895089582B708958FB58E7F8FBD8FB5BB
:1044100082608FBD8EB588608EBD8EB580618EBD89
:1044200084EF8ABD8BB581608BBD18BC89B589BD11
:1044300080E286BD8EE487BD8EB580648EBD8FB56B
:104440008F7B8FBD8FB580688FBD8FB58F7E8FBD01
:104450008FB580628FBD89B78B7F89BF89B78F7E0B
:1044600089BF89B7877F89BF89B78F7D89BF8EB59F
:10447000887F8EBD8EB582608EBD08958CBD8DB552
:10448000892B8DBD08958ABD8BB5892B8BBD089571
:1044900088BD89B5892B89BD08952CB530E04DB50F
:1044A000942F80E0282B392BC901089585B58F7B87
:1044B00085BD85B5886085BD8FEF83BD85B58F7E51
:1044C00085BD85B58F7D85BD89B7806889BF85B578
:1044D000887F85BD85B5876085BD089584BD0895B5
:1044E00083BD08950895089584B508958EB58064B8
:1044F0008EBD89B7806289BF0895813011F081E057
:1045000008958EB580648EBD80E0089589B780627D
:1045100089BF089589B78F7D89BF089526B530E09A
:1045200047B5942F80E0282B392BC901089581B518
:10453000887F81BD81B5866081BD089581B5886021
:1045400081BD089581B5886181BD11BC0895645015
:10455000683010F083E00895009711F482E0089528
:10456000E62FF0E0EE0FFF1FE250FE4F91838083B5
:1045700080E008951F920F920FB60F9211242F938F
:104580003F934F935F936F937F938F939F93AF93DB
:10459000BF93EF93FF93E0910C02F0910D023097DF
:1045A00009F00995FF91EF91BF91AF919F918F9184
:1045B0007F916F915F914F913F912F910F900FBE1F
:1045C0000F901F9018951F920F920FB60F92112403
:1045D0002F933F934F935F936F937F938F939F930B
:1045E000AF93BF93EF93FF93E0910A02F0910B0218
:1045F000309709F00995FF91EF91BF91AF919F918D
:104600008F917F916F915F914F913F912F910F907B
:104610000FBE0F901F9018951F920F920FB60F921A
:1046200011242F933F934F935F936F937F938F93B7
:104630009F93AF93BF93EF93FF93E0910802F091A4
:104640000902309709F00995FF91EF91BF91AF9161
:104650009F918F917F916F915F914F913F912F919A
:104660000F900FBE0F901F9018951F920F920FB6CC
:104670000F9211242F933F934F935F936F937F93E8
:104680008F939F93AF93BF93EF93FF93E0910602B5
:10469000F0910702309709F00995FF91EF91BF91D2
:1046A000AF919F918F917F916F915F914F913F91CA
:1046B0002F910F900FBE0F901F9018951F920F9281
:1046C0000FB60F9211242F933F934F935F936F93E5
:1046D0007F938F939F93AF93BF93EF93FF93E0915B
:1046E0000202F0910302309709F00995FF91EF91D2
:1046F000BF91AF919F918F917F916F915F914F91FA
:104700003F912F910F900FBE0F901F9018951F9201
:104710000F920FB60F9211242F933F934F935F93F5
:104720006F937F938F939F93AF93BF93EF93FF9379
:10473000E0910002F0910102309709F00995FF9194
:10474000EF91BF91AF919F918F917F916F915F9109
:104750004F913F912F910F900FBE0F901F90189582
:104760001F920F920FB60F9211242F933F934F93E6
:104770005F936F937F938F939F93AF93BF93EF93C9
:10478000FF93E091FE01F091FF01309709F0099548
:10479000FF91EF91BF91AF919F918F917F916F9119
:1047A0005F914F913F912F910F900FBE0F901F90EF
:1047B000189585B78F7E85BF85B78F7D85BF85B7F7
:1047C0008F7B85BF08958330E9F0843028F48130F1
:1047D00069F08230A0F407C0853001F18530C0F067
:1047E000863079F525C085B78F7E02C085B7806198
:1047F00085BF85B78F7D85BF85B78F7B17C085B790
:104800008F7E02C085B7806185BF85B78062F3CF98
:1048100085B78F7E85BF85B78F7D05C085B78F7EB5
:1048200085BF85B7806285BF85B7806485BF0895E1
:1048300085B7806185BF85B7806285BF85B7806495
:1048400085BF089585B7806885BF089585B78F7740
:1048500085BF0895889508950E94D923F89485B757
:10486000806885BF7894889585B78F7785BF0895D0
:104870008FB780688FBF08958FB78F778FBF0895E8
:10488000813051F0813030F0823041F0833049F096
:1048900081E008956BBB03C068BB01C065BB80E0CD
:1048A000089562BB80E00895813051F0813030F08E
:1048B000823041F0833049F081E008956ABB03C043
:1048C00067BB01C064BB80E0089561BB80E00895D0
:1048D000FB016115710511F482E00895813051F0FA
:1048E000813030F0823041F0833051F081E0089522
:1048F00089B303C086B301C083B3808380E0089589
:1049000080B3808380E00895683008F074C0442349
:10491000D1F58130A1F0813030F08230E1F0833088
:1049200009F069C024C02BB381E090E002C0880F79
:10493000991F6A95E2F7809582238BBB5AC028B3F2
:1049400081E090E002C0880F991F6A95E2F7809598
:10495000822388BB4EC025B381E090E002C0880F5F
:10496000991F6A95E2F78095822385BB42C022B3E6
:1049700081E090E002C0880F991F6A95E2F7809568
:10498000822382BB36C04130A1F5813091F0813065
:1049900028F08230C9F0833071F521C02BB381E05B
:1049A00090E002C0880F991F6A95E2F7282B2BBB75
:1049B00020C028B381E090E002C0880F991F6A955B
:1049C000E2F7282B28BB15C025B381E090E002C098
:1049D000880F991F6A95E2F7282B25BB0AC022B3DE
:1049E00081E090E002C0880F991F6A95E2F7282BBA
:1049F00022BB80E0089581E00895683008F074C01B
:104A00004423D1F58130A1F0813030F08230E1F0E3
:104A1000833009F069C024C02AB381E090E002C06D
:104A2000880F991F6A95E2F7809582238ABB5AC046
:104A300027B381E090E002C0880F991F6A95E2F7E2
:104A40008095822387BB4EC024B381E090E002C0F2
:104A5000880F991F6A95E2F78095822384BB42C034
:104A600021B381E090E002C0880F991F6A95E2F7B8
:104A70008095822381BB36C04130A1F5813091F011
:104A8000813028F08230C9F0833071F521C02AB31B
:104A900081E090E002C0880F991F6A95E2F7282B09
:104AA0002ABB20C027B381E090E002C0880F991F85
:104AB0006A95E2F7282B27BB15C024B381E090E06C
:104AC00002C0880F991F6A95E2F7282B24BB0AC001
:104AD00021B381E090E002C0880F991F6A95E2F748
:104AE000282B21BB80E0089581E00895FA01683009
:104AF000D0F4813049F0813028F0823039F08330B1
:104B000091F406C089B305C086B303C083B301C066
:104B100080B390E002C0959587956A95E2F7817021
:104B2000808380E0089581E00895982F843008F014
:104B300086C0683008F083C080B78B7F80BF91301B
:104B400031F1913038F0923009F43EC0933009F0E1
:104B500074C057C0413079F43AB381E090E002C0AC
:104B6000880F991F6A95E2F7282F209523232ABBE7
:104B70002BB3822B0AC02BB381E090E002C0880FD8
:104B8000991F6A95E2F7809582238BBB56C041300E
:104B900079F437B381E090E002C0880F991F6A95DD
:104BA000E2F7282F2095232327BB28B3822B0AC0A6
:104BB00028B381E090E002C0880F991F6A95E2F760
:104BC0008095822388BB39C0413079F434B381E0C9
:104BD00090E002C0880F991F6A95E2F7282F209570
:104BE000232324BB25B3822B0AC025B381E090E0A8
:104BF00002C0880F991F6A95E2F78095822385BBD2
:104C00001CC0413079F431B381E090E002C0880FDC
:104C1000991F6A95E2F7282F2095232321BB22B301
:104C2000822B0AC022B381E090E002C0880F991F56
:104C30006A95E2F78095822382BB80E0089581E047
:104C400008956830B0F5813091F0813028F08230DD
:104C5000C9F0833071F521C02BB381E090E002C030
:104C6000880F991F6A95E2F728272BBB20C028B32D
:104C700081E090E002C0880F991F6A95E2F728272B
:104C800028BB15C025B381E090E002C0880F991FB2
:104C90006A95E2F7282725BB0AC022B381E090E09D
:104CA00002C0880F991F6A95E2F7282722BB80E08F
:104CB000089581E008951F93182F83E067E041E095
:104CC0000E94842483E066E040E00E94842481E026
:104CD000612F0E94402483E065E041E00E9484242B
:104CE00080EA9FE00197F1F783E065E040E00E94F1
:104CF00084241F9108952F923F924F925F926F925A
:104D00007F928F929F92AF92BF92CF92DF92EF925B
:104D1000FF920F931F93DF93CF93CDB7DEB7299701
:104D20000FB6F894DEBF0FBECDBF2A833B834C8302
:104D30005D836E837F8388879987822F832B842B63
:104D4000852B862B872B9885892BE9858E2B11F453
:104D500080E30EC0F985F7FD0AC022242394332492
:104D600044245524662477248824992404C08DE2A1
:104D70000E945B2629C19101A201B301C40101E097
:104D80000E944900122FF32EE42ED52EC62EB72EE8
:104D9000A82E892E02E00E944900922E910E21E059
:104DA000911608F020E03F0DE1E03F1508F0E0E04B
:104DB000722E730E21E0731608F020E0E22B4E0DE8
:104DC00031E04E1508F030E06E2E640E21E06416DE
:104DD00008F020E0322B5D0D41E05D1508F040E069
:104DE000532E550E21E0551608F020E0422B6C0D95
:104DF00031E06C1508F030E0442E460E21E04616F6
:104E000008F020E0322B7B0D41E07B1508F040E0FC
:104E1000332E370E21E0371608F020E0422B8A0DA2
:104E200031E08A1508F030E0242E280E21E0281603
:104E300008F020E0322B980D832F890F89832A8177
:104E40003B814C815D816E817F8188859985AAE057
:104E5000AA2EBB24CC24DD24EE24FF2400E010E0A5
:104E60000E94F008122F190DF1E0121708F0F0E07F
:104E7000232F270DE1E0231708F0E0E0BF2FB20F4A
:104E800031E0B21708F030E0E32B242F260DF1E0DB
:104E9000241708F0F0E0AE2FA20F31E0A21708F0BF
:104EA00030E0F32B252F250D41E0251708F040E0D9
:104EB0000F2F020F31E0021708F030E0432B262FAE
:104EC000240D51E0261708F050E0642F620F31E006
:104ED000621708F030E0532B272F230D41E02717EE
:104EE00008F040E0520F31E0521708F030E0432B59
:104EF000282F220D31E0281708F030E0420F81E022
:104F0000421708F080E0382BE981E90F212E3B2E73
:104F10004A2E502E662E752E842E9E2E930E2A819A
:104F20003B814C815D816E817F8188859985FAE026
:104F3000AF2EBB24CC24DD24EE24FF2400E010E0BF
:104F40000E94C8002A833B834C835D836E837F83EA
:104F500088879987822F832B842B852B862B872B01
:104F6000F8858F2B892B09F006CF1DC09101A20176
:104F7000B301C401EAE0AE2EBB24CC24DD24EE2430
:104F8000FF2400E010E00E94A217822F805D0E94A3
:104F90005B269101A201B301C4010E942D111901E8
:104FA0002A013B014C0181E0281601F73320F1F67C
:104FB0004420E1F65520D1F66620C1F67720B1F6FF
:104FC0008820A1F6992091F629960FB6F894DEBFB5
:104FD0000FBECDBFCF91DF911F910F91FF90EF904A
:104FE000DF90CF90BF90AF909F908F907F906F9009
:104FF0005F904F903F902F9008951F93CF93DF9332
:10500000EC0110E003C00E945B261F5FFE01E10F70
:10501000F11D80818823B9F7DF91CF911F91089509
:105020001F93182F83E067E040E00E94842483E010
:1050300066E040E00E94842481E0612F0E944024C9
:1050400083E065E041E00E94842480EA9FE00197CC
:10505000F1F783E065E040E00E9484241F91089509
:1050600081E00E9410280895882329F0813011F0F2
:1050700060E001C0605C862F80680E94102808955F
:10508000DF92EF92FF920F931F93CF93DF938C01E8
:10509000F62EE42ED22E862F880F880F880F80647C
:1050A0000E941028C0E0D0E0F801EC0FFD1F8081C5
:1050B0000E945B262196C830D105B1F78E2D6D2D4B
:1050C0000E9434288F2D0E945B26DF91CF911F9183
:1050D0000F91FF90EF90DF90089583E065E041E04D
:1050E0000E94FD2483E066E041E00E94FD2483E00D
:1050F00067E041E00E94FD2480E991E028EC30E087
:10510000F9013197F1F70197D9F781E06FEF0E942C
:10511000542488E30E9410288CE00E94102881E02B
:105120000E94102808958F929F92BF92CF92DF9293
:10513000EF92FF920F931F93DF93CF930F92CDB710
:10514000DEB781E089830FEFEE24FF246E0108941F
:10515000C11CD11C98EC892E912CBE2C80E06E2DA8
:1051600040E00E94842414E080E0612FA6010E94A8
:1051700076258981882329F584EF91E0F401319720
:10518000F1F70197D9F780E0612FA6010E947625FB
:1051900089818823B1F4E12FF0E03497EE0FFF1FEF
:1051A000EE0FFF1FEE0DFF1DE952FE4F008105C0FF
:1051B00080E0612FA6010E94762589818823C1F3B2
:1051C00003C01F5F183081F680E06B2D41E00E9424
:1051D00084240894E11CF11C84E0E816F10409F031
:1051E000BCCF802F0F90CF91DF911F910F91FF9037
:1051F000EF90DF90CF90BF909F908F90089580E0C8
:1052000064E041E00E94952580E065E041E00E9475
:10521000952580E066E041E00E94952580E067E00A
:1052200041E00E94952580E060E041E00E94FD247D
:1052300080E061E041E00E94FD2480E062E041E026
:105240000E94FD2480E063E041E00E94FD2480E0B4
:1052500060E041E00E94842480E061E041E00E943F
:10526000842480E062E041E00E94842480E063E0E6
:1052700041E00E94842408950F931F93DF93CF93FE
:105280000F92CDB7DEB78C0110650E943821812FB7
:105290000E945D21802F0E948B210E944921812F35
:1052A0000E947421CE0101960E949D210E94E4215A
:1052B00089810F90CF91DF911F910F910895FF92F7
:1052C0000F931F93182F092FF62E0E943821802F3D
:1052D00080650E945D21812F0E948B218F2D0E946D
:1052E0008B210E94E42180E29EE40197F1F71F9157
:1052F0000F91FF900895EF92FF920F931F93FC017F
:105300000580F681E02DE680F7808701045F1F4F5E
:10531000C8010E94E22B8FE392E0B8010E94842B27
:1053200020E0E0910E02F0910F02D70156969C9179
:105330008689981708F021E0822F1F910F91FF9026
:10534000EF900895FF920F931F93CF93DF9399E00F
:10535000F92E21C0F894E0914402F09145020681B3
:105360001781C8010C960E94E22B7894E8012296DE
:10537000CE010E94E22BF8019689809110028917D4
:1053800010F4909310029F9DC0011124895E9D4FDF
:10539000BE010E94842B80913F028823D9F60E948F
:1053A00046302091110230911202821B930B909390
:1053B00014028093130289E0F82E53C00196909353
:1053C000160280931502215030403093140220932E
:1053D0001302892B09F03EC020913B0230913C0220
:1053E00080913D0290913E0290933C0280933B025B
:1053F00030933E0220933D022DC00580F681E02DC2
:10540000C681D78120911502309116028A819B8135
:105410002817390730F1F8948E010E5F1F4FC8012D
:105420000E94E22B8C899D89892B21F0CE010C965C
:105430000E94E22B78949E8980911002891710F4C3
:10544000909310029F9DC0011124895E9D4FB80169
:105450000E94842BE0913B02F0913C0280818823E2
:1054600061F62091130230911402809115029091FF
:1054700016022115310509F0A1CF909312028093F5
:1054800011029091100229E006C0992319F410929C
:10549000100232C09150929FD0011124A95EBD4FDD
:1054A0008C91882391F3909310021196ED91FC91C9
:1054B00012970280F381E02D1296FC93EE931197E0
:1054C000CD010396E817F90731F482819381129692
:1054D0009C938E9311971196ED91FC9112970680F3
:1054E000F781E02DF0930F02E0930E0220813181CD
:1054F000CF016789F9010995DF91CF911F910F9134
:10550000FF9008950F931F93CF93DF93EB010091CA
:10551000150210911602080F191F80910E0290912A
:105520000F0202960E94E22BE0910E02F0910F0210
:10553000138302838091150290911602BF016E5F62
:105540007F4F0817190728F480913D0290913E0281
:1055500004C080913B0290913C020E94AD2B2097A9
:1055600049F060910E0270910F02645F7F4FCE018F
:105570000E94AD2BDF91CF911F910F910895AF92B3
:10558000BF92CF92DF92EF92FF920F931F93CF9330
:10559000DF936C01B62EA42E8AE190E00E94492B85
:1055A000EC01009711F48FEF59C080910E02909199
:1055B0000F02892B21F5D0930F02C0930E0287E1D1
:1055C00092E00E94702B80E292E00E94702B29E210
:1055D000E22E22E0F22EC7010E94702B02E312E0BD
:1055E000C8010E94702B8FE392E00E94702BF09212
:1055F0003C02E0923B0210933E0200933D02EB2CF2
:10560000BB2011F0EE24E394198E188EEE8AAF8A37
:10561000FE01C192D1928F01CF010E94802BCE0159
:105620000C960E94802BD987C887DB8BCA8B84E0BD
:1056300090E08E1991099D878C879E898091100238
:10564000891710F49093100289E0989FC0011124EB
:10565000895E9D4FB8010E94842B81E0DF91CF913C
:105660001F910F91FF90EF90DF90CF90BF90AF9080
:10567000089508951092490210924802089520EB6F
:1056800034E08091480290914902281B390BC901EE
:1056900008950F931F93CF93DF938C010E944030A6
:1056A00080914802909149029801280F391F44E0E7
:1056B000203B340758F48217930740F4EC01C65B93
:1056C000DD4F309349022093480202C0C0E0D0E091
:1056D0000E949432CE01DF91CF911F910F910895D6
:1056E000FC019C012D5F3F4F328321838FEF9FEFA1
:1056F000948383833683258330872783108208959C
:10570000FC01118610860895CF93DF93AC01DB0175
:10571000EC0129813A81F9018281938113969C934E
:105720008E93129789819A8115969C938E931497E4
:105730000280F381E02D75836483E9017B836A83B2
:10574000FA017283618319965C934E931897808156
:105750008F5F8083DF91CF910895CF93DF939C017A
:10576000EB01488159818FEF4F3F580721F4F90130
:10577000A781B08510C0D901139604C012960D9070
:10578000BC91A02D1296ED91FC911397808191818F
:105790004817590798F71296ED91FC911397FB83E0
:1057A000EA83D583C483BD83AC831396DC93CE9305
:1057B000129739872887F90180818F5F8083DF9175
:1057C000CF910895CF93DF93DC011296ED91FC9178
:1057D000139714968D919C911597958384831496B5
:1057E000CD91DC911597FB83EA831896ED91FC919E
:1057F0001997818192818A179B0711F4D283C18303
:1058000019961C921E921897808181508083DF9197
:10581000CF910895FC0191E1908322E2229383E3EA
:10582000829362937293129280E88293129282E042
:10583000829383E0829384E0829385E0829386E082
:10584000829387E0829388E0829389E0829380E16B
:105850008293929382E1829383E1829384E18293A3
:1058600085E1829386E1829387E1829388E1829346
:1058700089E1829380E2829381E28293229383E2A0
:1058800082934293529386E2829387E2829388E2E4
:10589000829389E2829380E3829381E382933197BA
:1058A000CF0108951BBC8CE78ABD8BE08EBD89B704
:1058B000806189BFA091FA06B091FB06CD91CDBF62
:1058C000DD91DEBFFF91EF91DF91CF91BF91AF915D
:1058D0009F918F917F916F915F914F913F912F9108
:1058E0001F910F91FF90EF90DF90CF90BF90AF90FE
:1058F0009F908F907F906F905F904F903F902F90F0
:105900001F900F900FBE0F90089581E008950895A5
:105910000F920FB6F8940F921F9211242F923F927C
:105920004F925F926F927F928F929F92AF92BF92AF
:10593000CF92DF92EF92FF920F931F932F933F939B
:105940004F935F936F937F938F939F93AF93BF9387
:10595000CF93DF93EF93FF93A091FA06B091FB06EC
:105960000DB60D920EB60D920E943F310E945A3034
:10597000A091FA06B091FB06CD91CDBFDD91DEBFBF
:10598000FF91EF91DF91CF91BF91AF919F918F9157
:105990007F916F915F914F913F912F911F910F9147
:1059A000FF90EF90DF90CF90BF90AF909F908F903F
:1059B0007F906F905F904F903F902F901F900F902F
:1059C0000FBE0F9008950E94882C18950F920FB665
:1059D000F8940F921F9211242F923F924F925F9250
:1059E0006F927F928F929F92AF92BF92CF92DF92EF
:1059F000EF92FF920F931F932F933F934F935F93D9
:105A00006F937F938F939F93AF93BF93CF93DF93C6
:105A1000EF93FF93A091FA06B091FB060DB60D929D
:105A20000EB60D920E945A30A091FA06B091FB0674
:105A3000CD91CDBFDD91DEBFFF91EF91DF91CF9191
:105A4000BF91AF919F918F917F916F915F914F9196
:105A50003F912F911F910F91FF90EF90DF90CF908A
:105A6000BF90AF909F908F907F906F905F904F907E
:105A70003F902F901F900F900FBE0F900895FC0144
:105A80000FB6F8940F92828D0F900FBE0895FC010F
:105A9000828D0895FC01828D90E0882309F491E0C5
:105AA000892F0895FC01928D20E0838D981709F4C9
:105AB00021E0822F08950F931F938C01FC018081B8
:105AC00091810E94392BC8010E94392B1F910F919F
:105AD00008950F931F93CF93DF93EC01FB018A018D
